{
  "contractName": "Bottle",
  "abi": [
    {
      "inputs": [
        {
          "internalType": "string",
          "name": "_uri",
          "type": "string"
        },
        {
          "internalType": "address",
          "name": "_proxyRegistryAddress",
          "type": "address"
        }
      ],
      "stateMutability": "nonpayable",
      "type": "constructor"
    },
    {
      "anonymous": false,
      "inputs": [
        {
          "indexed": true,
          "internalType": "address",
          "name": "account",
          "type": "address"
        },
        {
          "indexed": true,
          "internalType": "address",
          "name": "operator",
          "type": "address"
        },
        {
          "indexed": false,
          "internalType": "bool",
          "name": "approved",
          "type": "bool"
        }
      ],
      "name": "ApprovalForAll",
      "type": "event"
    },
    {
      "anonymous": false,
      "inputs": [
        {
          "indexed": true,
          "internalType": "address",
          "name": "previousOwner",
          "type": "address"
        },
        {
          "indexed": true,
          "internalType": "address",
          "name": "newOwner",
          "type": "address"
        }
      ],
      "name": "OwnershipTransferred",
      "type": "event"
    },
    {
      "anonymous": false,
      "inputs": [
        {
          "indexed": true,
          "internalType": "bytes32",
          "name": "role",
          "type": "bytes32"
        },
        {
          "indexed": true,
          "internalType": "bytes32",
          "name": "previousAdminRole",
          "type": "bytes32"
        },
        {
          "indexed": true,
          "internalType": "bytes32",
          "name": "newAdminRole",
          "type": "bytes32"
        }
      ],
      "name": "RoleAdminChanged",
      "type": "event"
    },
    {
      "anonymous": false,
      "inputs": [
        {
          "indexed": true,
          "internalType": "bytes32",
          "name": "role",
          "type": "bytes32"
        },
        {
          "indexed": true,
          "internalType": "address",
          "name": "account",
          "type": "address"
        },
        {
          "indexed": true,
          "internalType": "address",
          "name": "sender",
          "type": "address"
        }
      ],
      "name": "RoleGranted",
      "type": "event"
    },
    {
      "anonymous": false,
      "inputs": [
        {
          "indexed": true,
          "internalType": "bytes32",
          "name": "role",
          "type": "bytes32"
        },
        {
          "indexed": true,
          "internalType": "address",
          "name": "account",
          "type": "address"
        },
        {
          "indexed": true,
          "internalType": "address",
          "name": "sender",
          "type": "address"
        }
      ],
      "name": "RoleRevoked",
      "type": "event"
    },
    {
      "anonymous": false,
      "inputs": [
        {
          "indexed": true,
          "internalType": "address",
          "name": "operator",
          "type": "address"
        },
        {
          "indexed": true,
          "internalType": "address",
          "name": "from",
          "type": "address"
        },
        {
          "indexed": true,
          "internalType": "address",
          "name": "to",
          "type": "address"
        },
        {
          "indexed": false,
          "internalType": "uint256[]",
          "name": "ids",
          "type": "uint256[]"
        },
        {
          "indexed": false,
          "internalType": "uint256[]",
          "name": "values",
          "type": "uint256[]"
        }
      ],
      "name": "TransferBatch",
      "type": "event"
    },
    {
      "anonymous": false,
      "inputs": [
        {
          "indexed": true,
          "internalType": "address",
          "name": "operator",
          "type": "address"
        },
        {
          "indexed": true,
          "internalType": "address",
          "name": "from",
          "type": "address"
        },
        {
          "indexed": true,
          "internalType": "address",
          "name": "to",
          "type": "address"
        },
        {
          "indexed": false,
          "internalType": "uint256",
          "name": "id",
          "type": "uint256"
        },
        {
          "indexed": false,
          "internalType": "uint256",
          "name": "value",
          "type": "uint256"
        }
      ],
      "name": "TransferSingle",
      "type": "event"
    },
    {
      "anonymous": false,
      "inputs": [
        {
          "indexed": false,
          "internalType": "string",
          "name": "value",
          "type": "string"
        },
        {
          "indexed": true,
          "internalType": "uint256",
          "name": "id",
          "type": "uint256"
        }
      ],
      "name": "URI",
      "type": "event"
    },
    {
      "inputs": [],
      "name": "CREATOR_ADMIN_ROLE",
      "outputs": [
        {
          "internalType": "bytes32",
          "name": "",
          "type": "bytes32"
        }
      ],
      "stateMutability": "view",
      "type": "function",
      "constant": true
    },
    {
      "inputs": [],
      "name": "CREATOR_ROLE",
      "outputs": [
        {
          "internalType": "bytes32",
          "name": "",
          "type": "bytes32"
        }
      ],
      "stateMutability": "view",
      "type": "function",
      "constant": true
    },
    {
      "inputs": [],
      "name": "DEFAULT_ADMIN_ROLE",
      "outputs": [
        {
          "internalType": "bytes32",
          "name": "",
          "type": "bytes32"
        }
      ],
      "stateMutability": "view",
      "type": "function",
      "constant": true
    },
    {
      "inputs": [],
      "name": "MINTER_ADMIN_ROLE",
      "outputs": [
        {
          "internalType": "bytes32",
          "name": "",
          "type": "bytes32"
        }
      ],
      "stateMutability": "view",
      "type": "function",
      "constant": true
    },
    {
      "inputs": [],
      "name": "MINTER_ROLE",
      "outputs": [
        {
          "internalType": "bytes32",
          "name": "",
          "type": "bytes32"
        }
      ],
      "stateMutability": "view",
      "type": "function",
      "constant": true
    },
    {
      "inputs": [
        {
          "internalType": "address",
          "name": "account",
          "type": "address"
        },
        {
          "internalType": "uint256",
          "name": "id",
          "type": "uint256"
        }
      ],
      "name": "balanceOf",
      "outputs": [
        {
          "internalType": "uint256",
          "name": "",
          "type": "uint256"
        }
      ],
      "stateMutability": "view",
      "type": "function",
      "constant": true
    },
    {
      "inputs": [
        {
          "internalType": "address[]",
          "name": "accounts",
          "type": "address[]"
        },
        {
          "internalType": "uint256[]",
          "name": "ids",
          "type": "uint256[]"
        }
      ],
      "name": "balanceOfBatch",
      "outputs": [
        {
          "internalType": "uint256[]",
          "name": "",
          "type": "uint256[]"
        }
      ],
      "stateMutability": "view",
      "type": "function",
      "constant": true
    },
    {
      "inputs": [],
      "name": "batchCount",
      "outputs": [
        {
          "internalType": "uint256",
          "name": "",
          "type": "uint256"
        }
      ],
      "stateMutability": "view",
      "type": "function",
      "constant": true
    },
    {
      "inputs": [
        {
          "internalType": "bytes32",
          "name": "role",
          "type": "bytes32"
        }
      ],
      "name": "getRoleAdmin",
      "outputs": [
        {
          "internalType": "bytes32",
          "name": "",
          "type": "bytes32"
        }
      ],
      "stateMutability": "view",
      "type": "function",
      "constant": true
    },
    {
      "inputs": [
        {
          "internalType": "bytes32",
          "name": "role",
          "type": "bytes32"
        },
        {
          "internalType": "uint256",
          "name": "index",
          "type": "uint256"
        }
      ],
      "name": "getRoleMember",
      "outputs": [
        {
          "internalType": "address",
          "name": "",
          "type": "address"
        }
      ],
      "stateMutability": "view",
      "type": "function",
      "constant": true
    },
    {
      "inputs": [
        {
          "internalType": "bytes32",
          "name": "role",
          "type": "bytes32"
        }
      ],
      "name": "getRoleMemberCount",
      "outputs": [
        {
          "internalType": "uint256",
          "name": "",
          "type": "uint256"
        }
      ],
      "stateMutability": "view",
      "type": "function",
      "constant": true
    },
    {
      "inputs": [
        {
          "internalType": "bytes32",
          "name": "_adminRole",
          "type": "bytes32"
        },
        {
          "internalType": "address",
          "name": "_address",
          "type": "address"
        }
      ],
      "name": "grantAdmin",
      "outputs": [],
      "stateMutability": "nonpayable",
      "type": "function"
    },
    {
      "inputs": [
        {
          "internalType": "bytes32",
          "name": "role",
          "type": "bytes32"
        },
        {
          "internalType": "address",
          "name": "account",
          "type": "address"
        }
      ],
      "name": "grantRole",
      "outputs": [],
      "stateMutability": "nonpayable",
      "type": "function"
    },
    {
      "inputs": [
        {
          "internalType": "bytes32",
          "name": "role",
          "type": "bytes32"
        },
        {
          "internalType": "address",
          "name": "account",
          "type": "address"
        }
      ],
      "name": "hasRole",
      "outputs": [
        {
          "internalType": "bool",
          "name": "",
          "type": "bool"
        }
      ],
      "stateMutability": "view",
      "type": "function",
      "constant": true
    },
    {
      "inputs": [
        {
          "internalType": "address",
          "name": "_owner",
          "type": "address"
        },
        {
          "internalType": "address",
          "name": "_operator",
          "type": "address"
        }
      ],
      "name": "isApprovedForAll",
      "outputs": [
        {
          "internalType": "bool",
          "name": "isOperator",
          "type": "bool"
        }
      ],
      "stateMutability": "view",
      "type": "function",
      "constant": true
    },
    {
      "inputs": [],
      "name": "maxTokenID",
      "outputs": [
        {
          "internalType": "uint256",
          "name": "",
          "type": "uint256"
        }
      ],
      "stateMutability": "view",
      "type": "function",
      "constant": true
    },
    {
      "inputs": [
        {
          "internalType": "address",
          "name": "_to",
          "type": "address"
        },
        {
          "internalType": "uint256",
          "name": "_id",
          "type": "uint256"
        },
        {
          "internalType": "uint256",
          "name": "_quantity",
          "type": "uint256"
        },
        {
          "internalType": "bytes",
          "name": "_data",
          "type": "bytes"
        }
      ],
      "name": "mint",
      "outputs": [],
      "stateMutability": "nonpayable",
      "type": "function"
    },
    {
      "inputs": [
        {
          "internalType": "address",
          "name": "_to",
          "type": "address"
        },
        {
          "internalType": "uint256[]",
          "name": "_ids",
          "type": "uint256[]"
        },
        {
          "internalType": "uint256[]",
          "name": "_quantities",
          "type": "uint256[]"
        },
        {
          "internalType": "bytes",
          "name": "_data",
          "type": "bytes"
        }
      ],
      "name": "mintBatch",
      "outputs": [],
      "stateMutability": "nonpayable",
      "type": "function"
    },
    {
      "inputs": [],
      "name": "name",
      "outputs": [
        {
          "internalType": "string",
          "name": "",
          "type": "string"
        }
      ],
      "stateMutability": "view",
      "type": "function",
      "constant": true
    },
    {
      "inputs": [],
      "name": "owner",
      "outputs": [
        {
          "internalType": "address",
          "name": "",
          "type": "address"
        }
      ],
      "stateMutability": "view",
      "type": "function",
      "constant": true
    },
    {
      "inputs": [],
      "name": "renounceOwnership",
      "outputs": [],
      "stateMutability": "nonpayable",
      "type": "function"
    },
    {
      "inputs": [
        {
          "internalType": "bytes32",
          "name": "role",
          "type": "bytes32"
        },
        {
          "internalType": "address",
          "name": "account",
          "type": "address"
        }
      ],
      "name": "renounceRole",
      "outputs": [],
      "stateMutability": "nonpayable",
      "type": "function"
    },
    {
      "inputs": [
        {
          "internalType": "bytes32",
          "name": "_adminRole",
          "type": "bytes32"
        },
        {
          "internalType": "address",
          "name": "_address",
          "type": "address"
        }
      ],
      "name": "revokeAdmin",
      "outputs": [],
      "stateMutability": "nonpayable",
      "type": "function"
    },
    {
      "inputs": [
        {
          "internalType": "bytes32",
          "name": "role",
          "type": "bytes32"
        },
        {
          "internalType": "address",
          "name": "account",
          "type": "address"
        }
      ],
      "name": "revokeRole",
      "outputs": [],
      "stateMutability": "nonpayable",
      "type": "function"
    },
    {
      "inputs": [
        {
          "internalType": "address",
          "name": "from",
          "type": "address"
        },
        {
          "internalType": "address",
          "name": "to",
          "type": "address"
        },
        {
          "internalType": "uint256[]",
          "name": "ids",
          "type": "uint256[]"
        },
        {
          "internalType": "uint256[]",
          "name": "amounts",
          "type": "uint256[]"
        },
        {
          "internalType": "bytes",
          "name": "data",
          "type": "bytes"
        }
      ],
      "name": "safeBatchTransferFrom",
      "outputs": [],
      "stateMutability": "nonpayable",
      "type": "function"
    },
    {
      "inputs": [
        {
          "internalType": "address",
          "name": "from",
          "type": "address"
        },
        {
          "internalType": "address",
          "name": "to",
          "type": "address"
        },
        {
          "internalType": "uint256",
          "name": "id",
          "type": "uint256"
        },
        {
          "internalType": "uint256",
          "name": "amount",
          "type": "uint256"
        },
        {
          "internalType": "bytes",
          "name": "data",
          "type": "bytes"
        }
      ],
      "name": "safeTransferFrom",
      "outputs": [],
      "stateMutability": "nonpayable",
      "type": "function"
    },
    {
      "inputs": [
        {
          "internalType": "address",
          "name": "operator",
          "type": "address"
        },
        {
          "internalType": "bool",
          "name": "approved",
          "type": "bool"
        }
      ],
      "name": "setApprovalForAll",
      "outputs": [],
      "stateMutability": "nonpayable",
      "type": "function"
    },
    {
      "inputs": [
        {
          "internalType": "address",
          "name": "_proxyRegistryAddress",
          "type": "address"
        }
      ],
      "name": "setProxyRegistryAddress",
      "outputs": [],
      "stateMutability": "nonpayable",
      "type": "function"
    },
    {
      "inputs": [
        {
          "internalType": "string",
          "name": "_newBaseMetadataURI",
          "type": "string"
        }
      ],
      "name": "setURI",
      "outputs": [],
      "stateMutability": "nonpayable",
      "type": "function"
    },
    {
      "inputs": [
        {
          "internalType": "bytes4",
          "name": "interfaceId",
          "type": "bytes4"
        }
      ],
      "name": "supportsInterface",
      "outputs": [
        {
          "internalType": "bool",
          "name": "",
          "type": "bool"
        }
      ],
      "stateMutability": "view",
      "type": "function",
      "constant": true
    },
    {
      "inputs": [],
      "name": "symbol",
      "outputs": [
        {
          "internalType": "string",
          "name": "",
          "type": "string"
        }
      ],
      "stateMutability": "view",
      "type": "function",
      "constant": true
    },
    {
      "inputs": [
        {
          "internalType": "uint256",
          "name": "",
          "type": "uint256"
        }
      ],
      "name": "totalSupply",
      "outputs": [
        {
          "internalType": "uint256",
          "name": "",
          "type": "uint256"
        }
      ],
      "stateMutability": "view",
      "type": "function",
      "constant": true
    },
    {
      "inputs": [
        {
          "internalType": "address",
          "name": "newOwner",
          "type": "address"
        }
      ],
      "name": "transferOwnership",
      "outputs": [],
      "stateMutability": "nonpayable",
      "type": "function"
    },
    {
      "inputs": [
        {
          "internalType": "uint256",
          "name": "",
          "type": "uint256"
        }
      ],
      "name": "uri",
      "outputs": [
        {
          "internalType": "string",
          "name": "",
          "type": "string"
        }
      ],
      "stateMutability": "view",
      "type": "function",
      "constant": true
    },
    {
      "inputs": [
        {
          "internalType": "uint256",
          "name": "maxBottles",
          "type": "uint256"
        },
        {
          "internalType": "uint256",
          "name": "ethCost",
          "type": "uint256"
        }
      ],
      "name": "createBatch",
      "outputs": [],
      "stateMutability": "nonpayable",
      "type": "function"
    },
    {
      "inputs": [
        {
          "internalType": "uint256",
          "name": "batchId",
          "type": "uint256"
        }
      ],
      "name": "batchExists",
      "outputs": [
        {
          "internalType": "bool",
          "name": "",
          "type": "bool"
        }
      ],
      "stateMutability": "view",
      "type": "function",
      "constant": true
    },
    {
      "inputs": [
        {
          "internalType": "uint256",
          "name": "batchId",
          "type": "uint256"
        }
      ],
      "name": "batchInfo",
      "outputs": [
        {
          "internalType": "uint256",
          "name": "",
          "type": "uint256"
        },
        {
          "internalType": "uint256",
          "name": "",
          "type": "uint256"
        },
        {
          "internalType": "uint256",
          "name": "",
          "type": "uint256"
        }
      ],
      "stateMutability": "view",
      "type": "function",
      "constant": true
    }
  ],
  "bytecode": "0x608060405260006007553480156200001657600080fd5b506040516200556638038062005566833981810160405260408110156200003c57600080fd5b81019080805160405193929190846401000000008211156200005d57600080fd5b838201915060208201858111156200007457600080fd5b82518660018202830111640100000000821117156200009257600080fd5b8083526020830192505050908051906020019080838360005b83811015620000c8578082015181840152602081019050620000ab565b50505050905090810190601f168015620000f65780820380516001836020036101000a031916815260200191505b50604052602001805190602001909291905050506040518060400160405280600a81526020017f437261617465204e4654000000000000000000000000000000000000000000008152506040518060400160405280600481526020017f57494e450000000000000000000000000000000000000000000000000000000081525083838160006200018b620004bb60201b60201c565b905080600160006101000a81548173ffffffffffffffffffffffffffffffffffffffff021916908373ffffffffffffffffffffffffffffffffffffffff1602179055508073ffffffffffffffffffffffffffffffffffffffff16600073ffffffffffffffffffffffffffffffffffffffff167f8be0079c531659141344cd1fd0a4f28419497f9722a3daafe3b4186f6b6457e060405160405180910390a350620002426301ffc9a760e01b620004c360201b60201c565b6200025381620005cd60201b60201c565b6200026b63d9b67a2660e01b620004c360201b60201c565b62000283630e89341c60e01b620004c360201b60201c565b5083600990805190602001906200029c929190620007d9565b5082600a9080519060200190620002b5929190620007d9565b5080600660006101000a81548173ffffffffffffffffffffffffffffffffffffffff021916908373ffffffffffffffffffffffffffffffffffffffff160217905550620003387f828634d95e775031b9ff576b159a8509d3053581a8c9c4d7d86899e0afcd882f6200032c620004bb60201b60201c565b620005e960201b60201c565b620003797f9f2df0fed2c77648de5860a4cc508cd0818c85b8b8a1ab4ceeef8d981c8956a66200036d620004bb60201b60201c565b620005e960201b60201c565b620003cb7f828634d95e775031b9ff576b159a8509d3053581a8c9c4d7d86899e0afcd882f7f5721171b1e9186284262a02aac3a681e12de7388ebccd0c2d06623651b6af6f8620005ff60201b60201c565b6200041d7f9f2df0fed2c77648de5860a4cc508cd0818c85b8b8a1ab4ceeef8d981c8956a67f70480ee89cb38eff00b7d23da25713d52ce19c6ed428691d22c58b2f615e3d67620005ff60201b60201c565b6200045e7f5721171b1e9186284262a02aac3a681e12de7388ebccd0c2d06623651b6af6f862000452620004bb60201b60201c565b620005e960201b60201c565b6200049f7f70480ee89cb38eff00b7d23da25713d52ce19c6ed428691d22c58b2f615e3d6762000493620004bb60201b60201c565b620005e960201b60201c565b5050505060016007819055506000600b8190555050506200087f565b600033905090565b63ffffffff60e01b817bffffffffffffffffffffffffffffffffffffffffffffffffffffffff1916141562000560576040517f08c379a000000000000000000000000000000000000000000000000000000000815260040180806020018281038252601c8152602001807f4552433136353a20696e76616c696420696e746572666163652069640000000081525060200191505060405180910390fd5b600160026000837bffffffffffffffffffffffffffffffffffffffffffffffffffffffff19167bffffffffffffffffffffffffffffffffffffffffffffffffffffffff1916815260200190815260200160002060006101000a81548160ff02191690831515021790555050565b8060059080519060200190620005e5929190620007d9565b5050565b620005fb82826200066160201b60201c565b5050565b8060008084815260200190815260200160002060020154837fbd79b86ffe0ab8e8776151514217cd7cacd52c909f66475c3af44e129f0b00ff60405160405180910390a480600080848152602001908152602001600020600201819055505050565b6200068f816000808581526020019081526020016000206000016200070460201b620033a81790919060201c565b156200070057620006a5620004bb60201b60201c565b73ffffffffffffffffffffffffffffffffffffffff168173ffffffffffffffffffffffffffffffffffffffff16837f2f8788117e7eff1d82e926ec794901d17c78024a50270940304540a733656f0d60405160405180910390a45b5050565b600062000734836000018373ffffffffffffffffffffffffffffffffffffffff1660001b6200073c60201b60201c565b905092915050565b6000620007508383620007b660201b60201c565b620007ab578260000182908060018154018082558091505060019003906000526020600020016000909190919091505582600001805490508360010160008481526020019081526020016000208190555060019050620007b0565b600090505b92915050565b600080836001016000848152602001908152602001600020541415905092915050565b828054600181600116156101000203166002900490600052602060002090601f016020900481019282601f106200081c57805160ff19168380011785556200084d565b828001600101855582156200084d579182015b828111156200084c5782518255916020019190600101906200082f565b5b5090506200085c919062000860565b5090565b5b808211156200087b57600081600090555060010162000861565b5090565b614cd7806200088f6000396000f3fe608060405234801561001057600080fd5b50600436106102265760003560e01c8063731133e911610130578063a217fddf116100b8578063d53913931161007c578063d539139314611124578063d547741f14611142578063e985e9c514611190578063f242432a1461120a578063f2fde38b1461131957610226565b8063a217fddf14610fee578063a22cb4651461100c578063bd85b0391461105c578063ca15c8731461109e578063d26ea6c0146110e057610226565b80639010d07c116100ff5780639010d07c14610e2957806391d1485414610e8b57806392a2d84614610eef57806395d89b4114610f275780639ffaa71e14610faa57610226565b8063731133e914610c98578063815bda4714610d875780638aeda25a14610dd75780638da5cb5b14610df557610226565b8063248a9ca3116101b35780634df6e605116101825780634df6e60514610a335780634e1273f414610a815780635a570c0c14610c225780635df7d82f14610c40578063715018a614610c8e57610226565b8063248a9ca3146107325780632eb2c2d6146107745780632f2ff15d1461099757806336568abe146109e557610226565b806306fdde03116101fa57806306fdde03146103c95780630e89341c1461044c5780631339324b146104f3578063197702da146105115780631f7fdffa1461052f57610226565b8062fdd58e1461022b57806301ffc9a71461028d57806302fe5305146102f057806306f13056146103ab575b600080fd5b6102776004803603604081101561024157600080fd5b81019080803573ffffffffffffffffffffffffffffffffffffffff1690602001909291908035906020019092919050505061135d565b6040518082815260200191505060405180910390f35b6102d8600480360360208110156102a357600080fd5b8101908080357bffffffffffffffffffffffffffffffffffffffffffffffffffffffff1916906020019092919050505061143d565b60405180821515815260200191505060405180910390f35b6103a96004803603602081101561030657600080fd5b810190808035906020019064010000000081111561032357600080fd5b82018360208201111561033557600080fd5b8035906020019184600183028401116401000000008311171561035757600080fd5b91908080601f016020809104026020016040519081016040528093929190818152602001838380828437600081840152601f19601f8201169050808301925050505050505091929192905050506114a5565b005b6103b3611560565b6040518082815260200191505060405180910390f35b6103d1611566565b6040518080602001828103825283818151815260200191508051906020019080838360005b838110156104115780820151818401526020810190506103f6565b50505050905090810190601f16801561043e5780820380516001836020036101000a031916815260200191505b509250505060405180910390f35b6104786004803603602081101561046257600080fd5b8101908080359060200190929190505050611604565b6040518080602001828103825283818151815260200191508051906020019080838360005b838110156104b857808201518184015260208101905061049d565b50505050905090810190601f1680156104e55780820380516001836020036101000a031916815260200191505b509250505060405180910390f35b6104fb6116a8565b6040518082815260200191505060405180910390f35b6105196116cc565b6040518082815260200191505060405180910390f35b6107306004803603608081101561054557600080fd5b81019080803573ffffffffffffffffffffffffffffffffffffffff1690602001909291908035906020019064010000000081111561058257600080fd5b82018360208201111561059457600080fd5b803590602001918460208302840111640100000000831117156105b657600080fd5b919080806020026020016040519081016040528093929190818152602001838360200280828437600081840152601f19601f8201169050808301925050505050505091929192908035906020019064010000000081111561061657600080fd5b82018360208201111561062857600080fd5b8035906020019184602083028401116401000000008311171561064a57600080fd5b919080806020026020016040519081016040528093929190818152602001838360200280828437600081840152601f19601f820116905080830192505050505050509192919290803590602001906401000000008111156106aa57600080fd5b8201836020820111156106bc57600080fd5b803590602001918460018302840111640100000000831117156106de57600080fd5b91908080601f016020809104026020016040519081016040528093929190818152602001838380828437600081840152601f19601f8201169050808301925050505050505091929192905050506116f0565b005b61075e6004803603602081101561074857600080fd5b8101908080359060200190929190505050611835565b6040518082815260200191505060405180910390f35b610995600480360360a081101561078a57600080fd5b81019080803573ffffffffffffffffffffffffffffffffffffffff169060200190929190803573ffffffffffffffffffffffffffffffffffffffff169060200190929190803590602001906401000000008111156107e757600080fd5b8201836020820111156107f957600080fd5b8035906020019184602083028401116401000000008311171561081b57600080fd5b919080806020026020016040519081016040528093929190818152602001838360200280828437600081840152601f19601f8201169050808301925050505050505091929192908035906020019064010000000081111561087b57600080fd5b82018360208201111561088d57600080fd5b803590602001918460208302840111640100000000831117156108af57600080fd5b919080806020026020016040519081016040528093929190818152602001838360200280828437600081840152601f19601f8201169050808301925050505050505091929192908035906020019064010000000081111561090f57600080fd5b82018360208201111561092157600080fd5b8035906020019184600183028401116401000000008311171561094357600080fd5b91908080601f016020809104026020016040519081016040528093929190818152602001838380828437600081840152601f19601f820116905080830192505050505050509192919290505050611854565b005b6109e3600480360360408110156109ad57600080fd5b8101908080359060200190929190803573ffffffffffffffffffffffffffffffffffffffff169060200190929190505050611cdf565b005b610a31600480360360408110156109fb57600080fd5b8101908080359060200190929190803573ffffffffffffffffffffffffffffffffffffffff169060200190929190505050611d68565b005b610a7f60048036036040811015610a4957600080fd5b8101908080359060200190929190803573ffffffffffffffffffffffffffffffffffffffff169060200190929190505050611e01565b005b610bcb60048036036040811015610a9757600080fd5b8101908080359060200190640100000000811115610ab457600080fd5b820183602082011115610ac657600080fd5b80359060200191846020830284011164010000000083111715610ae857600080fd5b919080806020026020016040519081016040528093929190818152602001838360200280828437600081840152601f19601f82011690508083019250505050505050919291929080359060200190640100000000811115610b4857600080fd5b820183602082011115610b5a57600080fd5b80359060200191846020830284011164010000000083111715610b7c57600080fd5b919080806020026020016040519081016040528093929190818152602001838360200280828437600081840152601f19601f820116905080830192505050505050509192919290505050611f40565b6040518080602001828103825283818151815260200191508051906020019060200280838360005b83811015610c0e578082015181840152602081019050610bf3565b505050509050019250505060405180910390f35b610c2a612132565b6040518082815260200191505060405180910390f35b610c8c60048036036040811015610c5657600080fd5b8101908080359060200190929190803573ffffffffffffffffffffffffffffffffffffffff169060200190929190505050612138565b005b610c96612277565b005b610d8560048036036080811015610cae57600080fd5b81019080803573ffffffffffffffffffffffffffffffffffffffff169060200190929190803590602001909291908035906020019092919080359060200190640100000000811115610cff57600080fd5b820183602082011115610d1157600080fd5b80359060200191846001830284011164010000000083111715610d3357600080fd5b91908080601f016020809104026020016040519081016040528093929190818152602001838380828437600081840152601f19601f8201169050808301925050505050505091929192905050506123e7565b005b610db360048036036020811015610d9d57600080fd5b8101908080359060200190929190505050612551565b60405180848152602001838152602001828152602001935050505060405180910390f35b610ddf6125a8565b6040518082815260200191505060405180910390f35b610dfd6125cc565b604051808273ffffffffffffffffffffffffffffffffffffffff16815260200191505060405180910390f35b610e5f60048036036040811015610e3f57600080fd5b8101908080359060200190929190803590602001909291905050506125f6565b604051808273ffffffffffffffffffffffffffffffffffffffff16815260200191505060405180910390f35b610ed760048036036040811015610ea157600080fd5b8101908080359060200190929190803573ffffffffffffffffffffffffffffffffffffffff169060200190929190505050612627565b60405180821515815260200191505060405180910390f35b610f2560048036036040811015610f0557600080fd5b810190808035906020019092919080359060200190929190505050612658565b005b610f2f61287c565b6040518080602001828103825283818151815260200191508051906020019080838360005b83811015610f6f578082015181840152602081019050610f54565b50505050905090810190601f168015610f9c5780820380516001836020036101000a031916815260200191505b509250505060405180910390f35b610fd660048036036020811015610fc057600080fd5b810190808035906020019092919050505061291a565b60405180821515815260200191505060405180910390f35b610ff661294e565b6040518082815260200191505060405180910390f35b61105a6004803603604081101561102257600080fd5b81019080803573ffffffffffffffffffffffffffffffffffffffff169060200190929190803515159060200190929190505050612955565b005b6110886004803603602081101561107257600080fd5b8101908080359060200190929190505050612aee565b6040518082815260200191505060405180910390f35b6110ca600480360360208110156110b457600080fd5b8101908080359060200190929190505050612b06565b6040518082815260200191505060405180910390f35b611122600480360360208110156110f657600080fd5b81019080803573ffffffffffffffffffffffffffffffffffffffff169060200190929190505050612b2c565b005b61112c612c1f565b6040518082815260200191505060405180910390f35b61118e6004803603604081101561115857600080fd5b8101908080359060200190929190803573ffffffffffffffffffffffffffffffffffffffff169060200190929190505050612c43565b005b6111f2600480360360408110156111a657600080fd5b81019080803573ffffffffffffffffffffffffffffffffffffffff169060200190929190803573ffffffffffffffffffffffffffffffffffffffff169060200190929190505050612ccc565b60405180821515815260200191505060405180910390f35b611317600480360360a081101561122057600080fd5b81019080803573ffffffffffffffffffffffffffffffffffffffff169060200190929190803573ffffffffffffffffffffffffffffffffffffffff16906020019092919080359060200190929190803590602001909291908035906020019064010000000081111561129157600080fd5b8201836020820111156112a357600080fd5b803590602001918460018302840111640100000000831117156112c557600080fd5b91908080601f016020809104026020016040519081016040528093929190818152602001838380828437600081840152601f19601f820116905080830192505050505050509192919290505050612e3e565b005b61135b6004803603602081101561132f57600080fd5b81019080803573ffffffffffffffffffffffffffffffffffffffff1690602001909291905050506131b3565b005b60008073ffffffffffffffffffffffffffffffffffffffff168373ffffffffffffffffffffffffffffffffffffffff1614156113e4576040517f08c379a000000000000000000000000000000000000000000000000000000000815260040180806020018281038252602b815260200180614a7c602b913960400191505060405180910390fd5b6003600083815260200190815260200160002060008473ffffffffffffffffffffffffffffffffffffffff1673ffffffffffffffffffffffffffffffffffffffff16815260200190815260200160002054905092915050565b600060026000837bffffffffffffffffffffffffffffffffffffffffffffffffffffffff19167bffffffffffffffffffffffffffffffffffffffffffffffffffffffff1916815260200190815260200160002060009054906101000a900460ff169050919050565b6114ad6133d8565b73ffffffffffffffffffffffffffffffffffffffff166114cb6125cc565b73ffffffffffffffffffffffffffffffffffffffff1614611554576040517f08c379a00000000000000000000000000000000000000000000000000000000081526004018080602001828103825260208152602001807f4f776e61626c653a2063616c6c6572206973206e6f7420746865206f776e657281525060200191505060405180910390fd5b61155d816133e0565b50565b600b5481565b60098054600181600116156101000203166002900480601f0160208091040260200160405190810160405280929190818152602001828054600181600116156101000203166002900480156115fc5780601f106115d1576101008083540402835291602001916115fc565b820191906000526020600020905b8154815290600101906020018083116115df57829003601f168201915b505050505081565b606060058054600181600116156101000203166002900480601f01602080910402602001604051908101604052809291908181526020018280546001816001161561010002031660029004801561169c5780601f106116715761010080835404028352916020019161169c565b820191906000526020600020905b81548152906001019060200180831161167f57829003601f168201915b50505050509050919050565b7f70480ee89cb38eff00b7d23da25713d52ce19c6ed428691d22c58b2f615e3d6781565b7f5721171b1e9186284262a02aac3a681e12de7388ebccd0c2d06623651b6af6f881565b6117217f9f2df0fed2c77648de5860a4cc508cd0818c85b8b8a1ab4ceeef8d981c8956a661171c6133d8565b612627565b611793576040517f08c379a00000000000000000000000000000000000000000000000000000000081526004018080602001828103825260148152602001807f43616c6c6572206973206e6f74206d696e74657200000000000000000000000081525060200191505060405180910390fd5b60005b8351811015611822576117eb8382815181106117ae57fe5b6020026020010151600860008785815181106117c657fe5b60200260200101518152602001908152602001600020546133fa90919063ffffffff16565b600860008684815181106117fb57fe5b60200260200101518152602001908152602001600020819055508080600101915050611796565b5061182f84848484613482565b50505050565b6000806000838152602001908152602001600020600201549050919050565b81518351146118ae576040517f08c379a0000000000000000000000000000000000000000000000000000000008152600401808060200182810382526028815260200180614c2a6028913960400191505060405180910390fd5b600073ffffffffffffffffffffffffffffffffffffffff168473ffffffffffffffffffffffffffffffffffffffff161415611934576040517f08c379a0000000000000000000000000000000000000000000000000000000008152600401808060200182810382526025815260200180614b576025913960400191505060405180910390fd5b61193c6133d8565b73ffffffffffffffffffffffffffffffffffffffff168573ffffffffffffffffffffffffffffffffffffffff16148061198257506119818561197c6133d8565b612ccc565b5b6119d7576040517f08c379a0000000000000000000000000000000000000000000000000000000008152600401808060200182810382526032815260200180614b7c6032913960400191505060405180910390fd5b60006119e16133d8565b90506119f18187878787876137a4565b60005b8451811015611bc2576000858281518110611a0b57fe5b602002602001015190506000858381518110611a2357fe5b60200260200101519050611aaa816040518060600160405280602a8152602001614bae602a91396003600086815260200190815260200160002060008d73ffffffffffffffffffffffffffffffffffffffff1673ffffffffffffffffffffffffffffffffffffffff168152602001908152602001600020546139a69092919063ffffffff16565b6003600084815260200190815260200160002060008b73ffffffffffffffffffffffffffffffffffffffff1673ffffffffffffffffffffffffffffffffffffffff16815260200190815260200160002081905550611b61816003600085815260200190815260200160002060008b73ffffffffffffffffffffffffffffffffffffffff1673ffffffffffffffffffffffffffffffffffffffff168152602001908152602001600020546133fa90919063ffffffff16565b6003600084815260200190815260200160002060008a73ffffffffffffffffffffffffffffffffffffffff1673ffffffffffffffffffffffffffffffffffffffff1681526020019081526020016000208190555050508060010190506119f4565b508473ffffffffffffffffffffffffffffffffffffffff168673ffffffffffffffffffffffffffffffffffffffff168273ffffffffffffffffffffffffffffffffffffffff167f4a39dc06d4c0dbc64b70af90fd698a233a518aa5d07e595d983b8c0526c8f7fb8787604051808060200180602001838103835285818151815260200191508051906020019060200280838360005b83811015611c72578082015181840152602081019050611c57565b50505050905001838103825284818151815260200191508051906020019060200280838360005b83811015611cb4578082015181840152602081019050611c99565b5050505090500194505050505060405180910390a4611cd7818787878787613a60565b505050505050565b611d0560008084815260200190815260200160002060020154611d006133d8565b612627565b611d5a576040517f08c379a000000000000000000000000000000000000000000000000000000000815260040180806020018281038252602f815260200180614a4d602f913960400191505060405180910390fd5b611d648282613def565b5050565b611d706133d8565b73ffffffffffffffffffffffffffffffffffffffff168173ffffffffffffffffffffffffffffffffffffffff1614611df3576040517f08c379a000000000000000000000000000000000000000000000000000000000815260040180806020018281038252602f815260200180614c73602f913960400191505060405180910390fd5b611dfd8282613e82565b5050565b7f5721171b1e9186284262a02aac3a681e12de7388ebccd0c2d06623651b6af6f882148015611e5d5750611e5c7f5721171b1e9186284262a02aac3a681e12de7388ebccd0c2d06623651b6af6f8611e576133d8565b612627565b5b80611ec057507f70480ee89cb38eff00b7d23da25713d52ce19c6ed428691d22c58b2f615e3d6782148015611ebf5750611ebe7f70480ee89cb38eff00b7d23da25713d52ce19c6ed428691d22c58b2f615e3d67611eb96133d8565b612627565b5b5b611f32576040517f08c379a000000000000000000000000000000000000000000000000000000000815260040180806020018281038252600c8152602001807f4e6f7420616e2061646d696e000000000000000000000000000000000000000081525060200191505060405180910390fd5b611f3c8282613def565b5050565b60608151835114611f9c576040517f08c379a0000000000000000000000000000000000000000000000000000000008152600401808060200182810382526029815260200180614c016029913960400191505060405180910390fd5b6060835167ffffffffffffffff81118015611fb657600080fd5b50604051908082528060200260200182016040528015611fe55781602001602082028036833780820191505090505b50905060005b845181101561212757600073ffffffffffffffffffffffffffffffffffffffff1685828151811061201857fe5b602002602001015173ffffffffffffffffffffffffffffffffffffffff16141561208d576040517f08c379a0000000000000000000000000000000000000000000000000000000008152600401808060200182810382526031815260200180614aa76031913960400191505060405180910390fd5b6003600085838151811061209d57fe5b6020026020010151815260200190815260200160002060008683815181106120c157fe5b602002602001015173ffffffffffffffffffffffffffffffffffffffff1673ffffffffffffffffffffffffffffffffffffffff1681526020019081526020016000205482828151811061211057fe5b602002602001018181525050806001019050611feb565b508091505092915050565b60075481565b7f5721171b1e9186284262a02aac3a681e12de7388ebccd0c2d06623651b6af6f88214801561219457506121937f5721171b1e9186284262a02aac3a681e12de7388ebccd0c2d06623651b6af6f861218e6133d8565b612627565b5b806121f757507f70480ee89cb38eff00b7d23da25713d52ce19c6ed428691d22c58b2f615e3d67821480156121f657506121f57f70480ee89cb38eff00b7d23da25713d52ce19c6ed428691d22c58b2f615e3d676121f06133d8565b612627565b5b5b612269576040517f08c379a000000000000000000000000000000000000000000000000000000000815260040180806020018281038252600c8152602001807f4e6f7420616e2061646d696e000000000000000000000000000000000000000081525060200191505060405180910390fd5b6122738282613e82565b5050565b61227f6133d8565b73ffffffffffffffffffffffffffffffffffffffff1661229d6125cc565b73ffffffffffffffffffffffffffffffffffffffff1614612326576040517f08c379a00000000000000000000000000000000000000000000000000000000081526004018080602001828103825260208152602001807f4f776e61626c653a2063616c6c6572206973206e6f7420746865206f776e657281525060200191505060405180910390fd5b600073ffffffffffffffffffffffffffffffffffffffff16600160009054906101000a900473ffffffffffffffffffffffffffffffffffffffff1673ffffffffffffffffffffffffffffffffffffffff167f8be0079c531659141344cd1fd0a4f28419497f9722a3daafe3b4186f6b6457e060405160405180910390a36000600160006101000a81548173ffffffffffffffffffffffffffffffffffffffff021916908373ffffffffffffffffffffffffffffffffffffffff160217905550565b6124187f9f2df0fed2c77648de5860a4cc508cd0818c85b8b8a1ab4ceeef8d981c8956a66124136133d8565b612627565b61248a576040517f08c379a00000000000000000000000000000000000000000000000000000000081526004018080602001828103825260148152602001807f43616c6c6572206973206e6f74206d696e74657200000000000000000000000081525060200191505060405180910390fd5b600754831115612502576040517f08c379a000000000000000000000000000000000000000000000000000000000815260040180806020018281038252600c8152602001807f546f6b656e20494420444e45000000000000000000000000000000000000000081525060200191505060405180910390fd5b6125288260086000868152602001908152602001600020546133fa90919063ffffffff16565b600860008581526020019081526020016000208190555061254b84848484613f15565b50505050565b6000806000600c600085815260200190815260200160002060020154600c600086815260200190815260200160002060030154600c6000878152602001908152602001600020600101549250925092509193909250565b7f828634d95e775031b9ff576b159a8509d3053581a8c9c4d7d86899e0afcd882f81565b6000600160009054906101000a900473ffffffffffffffffffffffffffffffffffffffff16905090565b600061261f8260008086815260200190815260200160002060000161411890919063ffffffff16565b905092915050565b60006126508260008086815260200190815260200160002060000161413290919063ffffffff16565b905092915050565b6126897f828634d95e775031b9ff576b159a8509d3053581a8c9c4d7d86899e0afcd882f6126846133d8565b612627565b6126fb576040517f08c379a000000000000000000000000000000000000000000000000000000000815260040180806020018281038252600d8152602001807f6e6f7420612063726561746f720000000000000000000000000000000000000081525060200191505060405180910390fd5b60008211612771576040517f08c379a00000000000000000000000000000000000000000000000000000000081526004018080602001828103825260088152602001807f6261642064696d7300000000000000000000000000000000000000000000000081525060200191505060405180910390fd5b600081116127e7576040517f08c379a00000000000000000000000000000000000000000000000000000000081526004018080602001828103825260088152602001807f62616420636f737400000000000000000000000000000000000000000000000081525060200191505060405180910390fd5b6127fd6001600b546133fa90919063ffffffff16565b600b819055506000600b54905061282060016007546133fa90919063ffffffff16565b6007819055506000600c6000838152602001908152602001600020905060018160000160006101000a81548160ff0219169083151502179055506000816003018190555083816002018190555082816001018190555050505050565b600a8054600181600116156101000203166002900480601f0160208091040260200160405190810160405280929190818152602001828054600181600116156101000203166002900480156129125780601f106128e757610100808354040283529160200191612912565b820191906000526020600020905b8154815290600101906020018083116128f557829003601f168201915b505050505081565b600060011515600c600084815260200190815260200160002060000160009054906101000a900460ff161515149050919050565b6000801b81565b8173ffffffffffffffffffffffffffffffffffffffff166129746133d8565b73ffffffffffffffffffffffffffffffffffffffff1614156129e1576040517f08c379a0000000000000000000000000000000000000000000000000000000008152600401808060200182810382526029815260200180614bd86029913960400191505060405180910390fd5b80600460006129ee6133d8565b73ffffffffffffffffffffffffffffffffffffffff1673ffffffffffffffffffffffffffffffffffffffff16815260200190815260200160002060008473ffffffffffffffffffffffffffffffffffffffff1673ffffffffffffffffffffffffffffffffffffffff16815260200190815260200160002060006101000a81548160ff0219169083151502179055508173ffffffffffffffffffffffffffffffffffffffff16612a9b6133d8565b73ffffffffffffffffffffffffffffffffffffffff167f17307eab39ab6107e8899845ad3d59bd9653f200f220920489ca2b5937696c318360405180821515815260200191505060405180910390a35050565b60086020528060005260406000206000915090505481565b6000612b25600080848152602001908152602001600020600001614162565b9050919050565b612b346133d8565b73ffffffffffffffffffffffffffffffffffffffff16612b526125cc565b73ffffffffffffffffffffffffffffffffffffffff1614612bdb576040517f08c379a00000000000000000000000000000000000000000000000000000000081526004018080602001828103825260208152602001807f4f776e61626c653a2063616c6c6572206973206e6f7420746865206f776e657281525060200191505060405180910390fd5b80600660006101000a81548173ffffffffffffffffffffffffffffffffffffffff021916908373ffffffffffffffffffffffffffffffffffffffff16021790555050565b7f9f2df0fed2c77648de5860a4cc508cd0818c85b8b8a1ab4ceeef8d981c8956a681565b612c6960008084815260200190815260200160002060020154612c646133d8565b612627565b612cbe576040517f08c379a0000000000000000000000000000000000000000000000000000000008152600401808060200182810382526030815260200180614b276030913960400191505060405180910390fd5b612cc88282613e82565b5050565b60008073ffffffffffffffffffffffffffffffffffffffff16600660009054906101000a900473ffffffffffffffffffffffffffffffffffffffff1673ffffffffffffffffffffffffffffffffffffffff1614612e2b576000600660009054906101000a900473ffffffffffffffffffffffffffffffffffffffff1690508273ffffffffffffffffffffffffffffffffffffffff168173ffffffffffffffffffffffffffffffffffffffff1663c4552791866040518263ffffffff1660e01b8152600401808273ffffffffffffffffffffffffffffffffffffffff16815260200191505060206040518083038186803b158015612dc857600080fd5b505afa158015612ddc573d6000803e3d6000fd5b505050506040513d6020811015612df257600080fd5b810190808051906020019092919050505073ffffffffffffffffffffffffffffffffffffffff161415612e29576001915050612e38565b505b612e358383614177565b90505b92915050565b600073ffffffffffffffffffffffffffffffffffffffff168473ffffffffffffffffffffffffffffffffffffffff161415612ec4576040517f08c379a0000000000000000000000000000000000000000000000000000000008152600401808060200182810382526025815260200180614b576025913960400191505060405180910390fd5b612ecc6133d8565b73ffffffffffffffffffffffffffffffffffffffff168573ffffffffffffffffffffffffffffffffffffffff161480612f125750612f1185612f0c6133d8565b612ccc565b5b612f67576040517f08c379a0000000000000000000000000000000000000000000000000000000008152600401808060200182810382526029815260200180614afe6029913960400191505060405180910390fd5b6000612f716133d8565b9050612f91818787612f828861420b565b612f8b8861420b565b876137a4565b61300e836040518060600160405280602a8152602001614bae602a91396003600088815260200190815260200160002060008a73ffffffffffffffffffffffffffffffffffffffff1673ffffffffffffffffffffffffffffffffffffffff168152602001908152602001600020546139a69092919063ffffffff16565b6003600086815260200190815260200160002060008873ffffffffffffffffffffffffffffffffffffffff1673ffffffffffffffffffffffffffffffffffffffff168152602001908152602001600020819055506130c5836003600087815260200190815260200160002060008873ffffffffffffffffffffffffffffffffffffffff1673ffffffffffffffffffffffffffffffffffffffff168152602001908152602001600020546133fa90919063ffffffff16565b6003600086815260200190815260200160002060008773ffffffffffffffffffffffffffffffffffffffff1673ffffffffffffffffffffffffffffffffffffffff168152602001908152602001600020819055508473ffffffffffffffffffffffffffffffffffffffff168673ffffffffffffffffffffffffffffffffffffffff168273ffffffffffffffffffffffffffffffffffffffff167fc3d58168c5ae7397731d063d5bbf3d657854427343f4c083240f7aacaa2d0f628787604051808381526020018281526020019250505060405180910390a46131ab81878787878761427b565b505050505050565b6131bb6133d8565b73ffffffffffffffffffffffffffffffffffffffff166131d96125cc565b73ffffffffffffffffffffffffffffffffffffffff1614613262576040517f08c379a00000000000000000000000000000000000000000000000000000000081526004018080602001828103825260208152602001807f4f776e61626c653a2063616c6c6572206973206e6f7420746865206f776e657281525060200191505060405180910390fd5b600073ffffffffffffffffffffffffffffffffffffffff168173ffffffffffffffffffffffffffffffffffffffff1614156132e8576040517f08c379a0000000000000000000000000000000000000000000000000000000008152600401808060200182810382526026815260200180614ad86026913960400191505060405180910390fd5b8073ffffffffffffffffffffffffffffffffffffffff16600160009054906101000a900473ffffffffffffffffffffffffffffffffffffffff1673ffffffffffffffffffffffffffffffffffffffff167f8be0079c531659141344cd1fd0a4f28419497f9722a3daafe3b4186f6b6457e060405160405180910390a380600160006101000a81548173ffffffffffffffffffffffffffffffffffffffff021916908373ffffffffffffffffffffffffffffffffffffffff16021790555050565b60006133d0836000018373ffffffffffffffffffffffffffffffffffffffff1660001b614588565b905092915050565b600033905090565b80600590805190602001906133f692919061485d565b5050565b600080828401905083811015613478576040517f08c379a000000000000000000000000000000000000000000000000000000000815260040180806020018281038252601b8152602001807f536166654d6174683a206164646974696f6e206f766572666c6f77000000000081525060200191505060405180910390fd5b8091505092915050565b600073ffffffffffffffffffffffffffffffffffffffff168473ffffffffffffffffffffffffffffffffffffffff161415613508576040517f08c379a0000000000000000000000000000000000000000000000000000000008152600401808060200182810382526021815260200180614c526021913960400191505060405180910390fd5b8151835114613562576040517f08c379a0000000000000000000000000000000000000000000000000000000008152600401808060200182810382526028815260200180614c2a6028913960400191505060405180910390fd5b600061356c6133d8565b905061357d816000878787876137a4565b60005b8451811015613686576136126003600087848151811061359c57fe5b6020026020010151815260200190815260200160002060008873ffffffffffffffffffffffffffffffffffffffff1673ffffffffffffffffffffffffffffffffffffffff168152602001908152602001600020548583815181106135fc57fe5b60200260200101516133fa90919063ffffffff16565b6003600087848151811061362257fe5b6020026020010151815260200190815260200160002060008873ffffffffffffffffffffffffffffffffffffffff1673ffffffffffffffffffffffffffffffffffffffff168152602001908152602001600020819055508080600101915050613580565b508473ffffffffffffffffffffffffffffffffffffffff16600073ffffffffffffffffffffffffffffffffffffffff168273ffffffffffffffffffffffffffffffffffffffff167f4a39dc06d4c0dbc64b70af90fd698a233a518aa5d07e595d983b8c0526c8f7fb8787604051808060200180602001838103835285818151815260200191508051906020019060200280838360005b8381101561373757808201518184015260208101905061371c565b50505050905001838103825284818151815260200191508051906020019060200280838360005b8381101561377957808201518184015260208101905061375e565b5050505090500194505050505060405180910390a461379d81600087878787613a60565b5050505050565b60005b835181101561399d57600073ffffffffffffffffffffffffffffffffffffffff168673ffffffffffffffffffffffffffffffffffffffff161415613862576138348382815181106137f457fe5b6020026020010151600c600087858151811061380c57fe5b60200260200101518152602001908152602001600020600301546133fa90919063ffffffff16565b600c600086848151811061384457fe5b60200260200101518152602001908152602001600020600301819055505b600073ffffffffffffffffffffffffffffffffffffffff168573ffffffffffffffffffffffffffffffffffffffff161415613990576138e68382815181106138a657fe5b6020026020010151600c60008785815181106138be57fe5b60200260200101518152602001908152602001600020600301546145f890919063ffffffff16565b600c60008684815181106138f657fe5b602002602001015181526020019081526020016000206003018190555061396283828151811061392257fe5b6020026020010151600c600087858151811061393a57fe5b60200260200101518152602001908152602001600020600201546145f890919063ffffffff16565b600c600086848151811061397257fe5b60200260200101518152602001908152602001600020600201819055505b80806001019150506137a7565b50505050505050565b6000838311158290613a53576040517f08c379a00000000000000000000000000000000000000000000000000000000081526004018080602001828103825283818151815260200191508051906020019080838360005b83811015613a185780820151818401526020810190506139fd565b50505050905090810190601f168015613a455780820380516001836020036101000a031916815260200191505b509250505060405180910390fd5b5082840390509392505050565b613a7f8473ffffffffffffffffffffffffffffffffffffffff1661467b565b15613de7578373ffffffffffffffffffffffffffffffffffffffff1663bc197c8187878686866040518663ffffffff1660e01b8152600401808673ffffffffffffffffffffffffffffffffffffffff1681526020018573ffffffffffffffffffffffffffffffffffffffff168152602001806020018060200180602001848103845287818151815260200191508051906020019060200280838360005b83811015613b37578082015181840152602081019050613b1c565b50505050905001848103835286818151815260200191508051906020019060200280838360005b83811015613b79578082015181840152602081019050613b5e565b50505050905001848103825285818151815260200191508051906020019080838360005b83811015613bb8578082015181840152602081019050613b9d565b50505050905090810190601f168015613be55780820380516001836020036101000a031916815260200191505b5098505050505050505050602060405180830381600087803b158015613c0a57600080fd5b505af1925050508015613c3e57506040513d6020811015613c2a57600080fd5b810190808051906020019092919050505060015b613d4857613c4a614918565b80613c555750613cf7565b806040517f08c379a00000000000000000000000000000000000000000000000000000000081526004018080602001828103825283818151815260200191508051906020019080838360005b83811015613cbc578082015181840152602081019050613ca1565b50505050905090810190601f168015613ce95780820380516001836020036101000a031916815260200191505b509250505060405180910390fd5b6040517f08c379a00000000000000000000000000000000000000000000000000000000081526004018080602001828103825260348152602001806149cf6034913960400191505060405180910390fd5b63bc197c8160e01b7bffffffffffffffffffffffffffffffffffffffffffffffffffffffff1916817bffffffffffffffffffffffffffffffffffffffffffffffffffffffff191614613de5576040517f08c379a0000000000000000000000000000000000000000000000000000000008152600401808060200182810382526028815260200180614a256028913960400191505060405180910390fd5b505b505050505050565b613e16816000808581526020019081526020016000206000016133a890919063ffffffff16565b15613e7e57613e236133d8565b73ffffffffffffffffffffffffffffffffffffffff168173ffffffffffffffffffffffffffffffffffffffff16837f2f8788117e7eff1d82e926ec794901d17c78024a50270940304540a733656f0d60405160405180910390a45b5050565b613ea98160008085815260200190815260200160002060000161468e90919063ffffffff16565b15613f1157613eb66133d8565b73ffffffffffffffffffffffffffffffffffffffff168173ffffffffffffffffffffffffffffffffffffffff16837ff6391f5c32d9c69d2a47ea670b442974b53935d1edc7fd64eb21e047a839171b60405160405180910390a45b5050565b600073ffffffffffffffffffffffffffffffffffffffff168473ffffffffffffffffffffffffffffffffffffffff161415613f9b576040517f08c379a0000000000000000000000000000000000000000000000000000000008152600401808060200182810382526021815260200180614c526021913960400191505060405180910390fd5b6000613fa56133d8565b9050613fc681600087613fb78861420b565b613fc08861420b565b876137a4565b614029836003600087815260200190815260200160002060008873ffffffffffffffffffffffffffffffffffffffff1673ffffffffffffffffffffffffffffffffffffffff168152602001908152602001600020546133fa90919063ffffffff16565b6003600086815260200190815260200160002060008773ffffffffffffffffffffffffffffffffffffffff1673ffffffffffffffffffffffffffffffffffffffff168152602001908152602001600020819055508473ffffffffffffffffffffffffffffffffffffffff16600073ffffffffffffffffffffffffffffffffffffffff168273ffffffffffffffffffffffffffffffffffffffff167fc3d58168c5ae7397731d063d5bbf3d657854427343f4c083240f7aacaa2d0f628787604051808381526020018281526020019250505060405180910390a46141118160008787878761427b565b5050505050565b600061412783600001836146be565b60001c905092915050565b600061415a836000018373ffffffffffffffffffffffffffffffffffffffff1660001b614741565b905092915050565b600061417082600001614764565b9050919050565b6000600460008473ffffffffffffffffffffffffffffffffffffffff1673ffffffffffffffffffffffffffffffffffffffff16815260200190815260200160002060008373ffffffffffffffffffffffffffffffffffffffff1673ffffffffffffffffffffffffffffffffffffffff16815260200190815260200160002060009054906101000a900460ff16905092915050565b606080600167ffffffffffffffff8111801561422657600080fd5b506040519080825280602002602001820160405280156142555781602001602082028036833780820191505090505b509050828160008151811061426657fe5b60200260200101818152505080915050919050565b61429a8473ffffffffffffffffffffffffffffffffffffffff1661467b565b15614580578373ffffffffffffffffffffffffffffffffffffffff1663f23a6e6187878686866040518663ffffffff1660e01b8152600401808673ffffffffffffffffffffffffffffffffffffffff1681526020018573ffffffffffffffffffffffffffffffffffffffff16815260200184815260200183815260200180602001828103825283818151815260200191508051906020019080838360005b83811015614353578082015181840152602081019050614338565b50505050905090810190601f1680156143805780820380516001836020036101000a031916815260200191505b509650505050505050602060405180830381600087803b1580156143a357600080fd5b505af19250505080156143d757506040513d60208110156143c357600080fd5b810190808051906020019092919050505060015b6144e1576143e3614918565b806143ee5750614490565b806040517f08c379a00000000000000000000000000000000000000000000000000000000081526004018080602001828103825283818151815260200191508051906020019080838360005b8381101561445557808201518184015260208101905061443a565b50505050905090810190601f1680156144825780820380516001836020036101000a031916815260200191505b509250505060405180910390fd5b6040517f08c379a00000000000000000000000000000000000000000000000000000000081526004018080602001828103825260348152602001806149cf6034913960400191505060405180910390fd5b63f23a6e6160e01b7bffffffffffffffffffffffffffffffffffffffffffffffffffffffff1916817bffffffffffffffffffffffffffffffffffffffffffffffffffffffff19161461457e576040517f08c379a0000000000000000000000000000000000000000000000000000000008152600401808060200182810382526028815260200180614a256028913960400191505060405180910390fd5b505b505050505050565b60006145948383614741565b6145ed5782600001829080600181540180825580915050600190039060005260206000200160009091909190915055826000018054905083600101600084815260200190815260200160002081905550600190506145f2565b600090505b92915050565b600082821115614670576040517f08c379a000000000000000000000000000000000000000000000000000000000815260040180806020018281038252601e8152602001807f536166654d6174683a207375627472616374696f6e206f766572666c6f77000081525060200191505060405180910390fd5b818303905092915050565b600080823b905060008111915050919050565b60006146b6836000018373ffffffffffffffffffffffffffffffffffffffff1660001b614775565b905092915050565b60008183600001805490501161471f576040517f08c379a0000000000000000000000000000000000000000000000000000000008152600401808060200182810382526022815260200180614a036022913960400191505060405180910390fd5b82600001828154811061472e57fe5b9060005260206000200154905092915050565b600080836001016000848152602001908152602001600020541415905092915050565b600081600001805490509050919050565b6000808360010160008481526020019081526020016000205490506000811461485157600060018203905060006001866000018054905003905060008660000182815481106147c057fe5b90600052602060002001549050808760000184815481106147dd57fe5b906000526020600020018190555060018301876001016000838152602001908152602001600020819055508660000180548061481557fe5b60019003818190600052602060002001600090559055866001016000878152602001908152602001600020600090556001945050505050614857565b60009150505b92915050565b828054600181600116156101000203166002900490600052602060002090601f016020900481019282601f1061489e57805160ff19168380011785556148cc565b828001600101855582156148cc579182015b828111156148cb5782518255916020019190600101906148b0565b5b5090506148d991906148dd565b5090565b5b808211156148f65760008160009055506001016148de565b5090565b6000601f19601f8301169050919050565b60008160e01c9050919050565b600060443d1015614928576149cb565b60046000803e61493960005161490b565b6308c379a0811461494a57506149cb565b60405160043d036004823e80513d602482011167ffffffffffffffff82111715614976575050506149cb565b808201805167ffffffffffffffff8111156149955750505050506149cb565b8060208301013d85018111156149b0575050505050506149cb565b6149b9826148fa565b60208401016040528296505050505050505b9056fe455243313135353a207472616e7366657220746f206e6f6e2045524331313535526563656976657220696d706c656d656e746572456e756d657261626c655365743a20696e646578206f7574206f6620626f756e6473455243313135353a204552433131353552656365697665722072656a656374656420746f6b656e73416363657373436f6e74726f6c3a2073656e646572206d75737420626520616e2061646d696e20746f206772616e74455243313135353a2062616c616e636520717565727920666f7220746865207a65726f2061646472657373455243313135353a2062617463682062616c616e636520717565727920666f7220746865207a65726f20616464726573734f776e61626c653a206e6577206f776e657220697320746865207a65726f2061646472657373455243313135353a2063616c6c6572206973206e6f74206f776e6572206e6f7220617070726f766564416363657373436f6e74726f6c3a2073656e646572206d75737420626520616e2061646d696e20746f207265766f6b65455243313135353a207472616e7366657220746f20746865207a65726f2061646472657373455243313135353a207472616e736665722063616c6c6572206973206e6f74206f776e6572206e6f7220617070726f766564455243313135353a20696e73756666696369656e742062616c616e636520666f72207472616e73666572455243313135353a2073657474696e6720617070726f76616c2073746174757320666f722073656c66455243313135353a206163636f756e747320616e6420696473206c656e677468206d69736d61746368455243313135353a2069647320616e6420616d6f756e7473206c656e677468206d69736d61746368455243313135353a206d696e7420746f20746865207a65726f2061646472657373416363657373436f6e74726f6c3a2063616e206f6e6c792072656e6f756e636520726f6c657320666f722073656c66a264697066735822122056d3da6a52d938fdf862338aeae18e1ffd554dd4175f49cfbb12ed6bf906c20a64736f6c634300060c0033",
  "immutableReferences": {},
  "source": "// SPDX-License-Identifier: MIT\n\npragma solidity ^0.6.0;\n\nimport \"./BaseERC1155.sol\";\n\n/*\n *  Bottle - This is a ERC1155 contract that mints bottles.\n */\ncontract Bottle is BaseERC1155\n{\n  using SafeMath for uint256;\n\n  /*\n   *  Batch is a batch of bottles minted.\n   */\n  struct Batch {\n    // Does the bottle exist?\n    bool exists;\n\n    // Cost in ETH per mint.\n    uint256 ethCost;\n\n    // Number of bottles in the batch\n    uint256 maxBottles;\n    uint256 numBottles;\n  }\n\n  uint256 public batchCount;\n  mapping (uint256 => Batch) internal batches;\n\n  //////////////////////////////////////////////////////////////////////////////\n\n\n  /*\n   *  Constructor!\n   */\n  constructor(\n    string memory _uri,\n    address _proxyRegistryAddress\n  )\n    BaseERC1155(\n      \"Craate NFT\",\n      \"WINE\",\n      _uri,\n      _proxyRegistryAddress\n    )\n    public\n  {\n      maxTokenID = 1;\n      batchCount = 0;\n  }\n\n  //////////////////////////////////////////////////////////////////////////////\n\n  /*\n   *  Create a batch with N bottles.\n   */\n  function createBatch(\n    uint256 maxBottles,\n    uint256 ethCost\n  )\n    external\n  {\n    require(hasRole(CREATOR_ROLE, _msgSender()), \"not a creator\");\n    require(maxBottles > 0, \"bad dims\");\n    require(ethCost > 0, \"bad cost\");\n\n    /*\n     *  Create tokens to represent each puzzle in this scene.\n     *\n     *  Each puzzle will have one additional token to track the completed puzzle\n     *  that can only be acquired by burning all the subsequent puzzle tiles (1\n     *  of each that make up the image).\n     */\n\n    // We are about to make a new batch.\n    batchCount = batchCount.add(1);\n\n    // Create a batch.\n    uint256 batchId = batchCount;\n\n    // Grab an ID and advance the maxTokenID for the base contract.\n    maxTokenID  = maxTokenID.add(1);\n\n    // Fill out the storage.\n    Batch storage b = batches[batchId];\n    b.exists        = true;\n    b.numBottles    = 0;\n    b.maxBottles    = maxBottles;\n    b.ethCost       = ethCost;\n  }\n\n  //////////////////////////////////////////////////////////////////////////////\n\n  /*\n   *  Public and inter-contract queries for batch info.\n   */\n  function batchExists(uint256 batchId) view external returns (bool) { return (batches[batchId].exists == true); }\n  function batchInfo(uint256 batchId) view external returns (uint256, uint256, uint256) { return (batches[batchId].maxBottles, batches[batchId].numBottles, batches[batchId].ethCost); }\n\n  //////////////////////////////////////////////////////////////////////////////\n\n  function _beforeTokenTransfer\n  (\n    address /*operator*/,\n    address from,\n    address to,\n    uint256[] memory ids,\n    uint256[] memory amounts,\n    bytes memory /*data*/\n  )\n    internal\n    override\n  {\n    /*\n     *  A new token was minted!\n     *\n     *  Add hooks for ownership tracking etc here.\n     */\n    for (uint i = 0; i < ids.length; i++) {\n      // Token minted - reduce from supply.\n      if (from == address(0)) {\n        batches[ids[i]].numBottles = batches[ids[i]].numBottles.add(amounts[i]);\n      }\n\n      // Token burn, reduce max count and supply.\n      if (to == address(0)) {\n        batches[ids[i]].numBottles = batches[ids[i]].numBottles.sub(amounts[i]);\n        batches[ids[i]].maxBottles = batches[ids[i]].maxBottles.sub(amounts[i]);\n      }\n    }\n  }\n}\n",
  "sourcePath": "/Users/shaba/work/github/private/crypto/craate/contract/contracts/Bottle.sol",
  "compiler": {
    "name": "solc",
    "version": "0.6.12+commit.27d51765.Emscripten.clang"
  },
  "schemaVersion": "3.3.3",
  "updatedAt": "2022-03-10T03:16:28.476Z",
  "networkType": "ethereum",
  "devdoc": {
    "kind": "dev",
    "methods": {
      "balanceOf(address,uint256)": {
        "details": "See {IERC1155-balanceOf}. Requirements: - `account` cannot be the zero address."
      },
      "balanceOfBatch(address[],uint256[])": {
        "details": "See {IERC1155-balanceOfBatch}. Requirements: - `accounts` and `ids` must have the same length."
      },
      "getRoleAdmin(bytes32)": {
        "details": "Returns the admin role that controls `role`. See {grantRole} and {revokeRole}. To change a role's admin, use {_setRoleAdmin}."
      },
      "getRoleMember(bytes32,uint256)": {
        "details": "Returns one of the accounts that have `role`. `index` must be a value between 0 and {getRoleMemberCount}, non-inclusive. Role bearers are not sorted in any particular way, and their ordering may change at any point. WARNING: When using {getRoleMember} and {getRoleMemberCount}, make sure you perform all queries on the same block. See the following https://forum.openzeppelin.com/t/iterating-over-elements-on-enumerableset-in-openzeppelin-contracts/2296[forum post] for more information."
      },
      "getRoleMemberCount(bytes32)": {
        "details": "Returns the number of accounts that have `role`. Can be used together with {getRoleMember} to enumerate all bearers of a role."
      },
      "grantRole(bytes32,address)": {
        "details": "Grants `role` to `account`. If `account` had not been already granted `role`, emits a {RoleGranted} event. Requirements: - the caller must have ``role``'s admin role."
      },
      "hasRole(bytes32,address)": {
        "details": "Returns `true` if `account` has been granted `role`."
      },
      "owner()": {
        "details": "Returns the address of the current owner."
      },
      "renounceOwnership()": {
        "details": "Leaves the contract without owner. It will not be possible to call `onlyOwner` functions anymore. Can only be called by the current owner. NOTE: Renouncing ownership will leave the contract without an owner, thereby removing any functionality that is only available to the owner."
      },
      "renounceRole(bytes32,address)": {
        "details": "Revokes `role` from the calling account. Roles are often managed via {grantRole} and {revokeRole}: this function's purpose is to provide a mechanism for accounts to lose their privileges if they are compromised (such as when a trusted device is misplaced). If the calling account had been granted `role`, emits a {RoleRevoked} event. Requirements: - the caller must be `account`."
      },
      "revokeRole(bytes32,address)": {
        "details": "Revokes `role` from `account`. If `account` had been granted `role`, emits a {RoleRevoked} event. Requirements: - the caller must have ``role``'s admin role."
      },
      "safeBatchTransferFrom(address,address,uint256[],uint256[],bytes)": {
        "details": "See {IERC1155-safeBatchTransferFrom}."
      },
      "safeTransferFrom(address,address,uint256,uint256,bytes)": {
        "details": "See {IERC1155-safeTransferFrom}."
      },
      "setApprovalForAll(address,bool)": {
        "details": "See {IERC1155-setApprovalForAll}."
      },
      "supportsInterface(bytes4)": {
        "details": "See {IERC165-supportsInterface}. Time complexity O(1), guaranteed to always use less than 30 000 gas."
      },
      "transferOwnership(address)": {
        "details": "Transfers ownership of the contract to a new account (`newOwner`). Can only be called by the current owner."
      },
      "uri(uint256)": {
        "details": "See {IERC1155MetadataURI-uri}. This implementation returns the same URI for *all* token types. It relies on the token type ID substituion mechanism https://eips.ethereum.org/EIPS/eip-1155#metadata[defined in the EIP]. Clients calling this function must replace the `\\{id\\}` substring with the actual token type ID."
      }
    },
    "version": 1
  },
  "userdoc": {
    "kind": "user",
    "methods": {
      "grantAdmin(bytes32,address)": {
        "notice": "Only Token Creator Admin Functions*"
      },
      "isApprovedForAll(address,address)": {
        "notice": "Override isApprovedForAll to whitelist user's OpenSea proxy accounts to enable gas-free listings."
      },
      "mint(address,uint256,uint256,bytes)": {
        "notice": "Only Token Minter Functions*"
      },
      "setProxyRegistryAddress(address)": {
        "notice": "Only Owner Functions*"
      }
    },
    "version": 1
  }
}