{
  "contractName": "BottleWrapper",
  "abi": [
    {
      "inputs": [
        {
          "internalType": "address",
          "name": "_bottleAddress",
          "type": "address"
        }
      ],
      "stateMutability": "nonpayable",
      "type": "constructor"
    },
    {
      "anonymous": false,
      "inputs": [
        {
          "indexed": true,
          "internalType": "address",
          "name": "previousOwner",
          "type": "address"
        },
        {
          "indexed": true,
          "internalType": "address",
          "name": "newOwner",
          "type": "address"
        }
      ],
      "name": "OwnershipTransferred",
      "type": "event"
    },
    {
      "inputs": [],
      "name": "bottleContract",
      "outputs": [
        {
          "internalType": "contract Bottle",
          "name": "",
          "type": "address"
        }
      ],
      "stateMutability": "view",
      "type": "function",
      "constant": true
    },
    {
      "inputs": [],
      "name": "owner",
      "outputs": [
        {
          "internalType": "address",
          "name": "",
          "type": "address"
        }
      ],
      "stateMutability": "view",
      "type": "function",
      "constant": true
    },
    {
      "inputs": [],
      "name": "renounceOwnership",
      "outputs": [],
      "stateMutability": "nonpayable",
      "type": "function"
    },
    {
      "inputs": [
        {
          "internalType": "address",
          "name": "newOwner",
          "type": "address"
        }
      ],
      "name": "transferOwnership",
      "outputs": [],
      "stateMutability": "nonpayable",
      "type": "function"
    },
    {
      "inputs": [
        {
          "internalType": "address",
          "name": "_address",
          "type": "address"
        }
      ],
      "name": "setBottleAddress",
      "outputs": [],
      "stateMutability": "nonpayable",
      "type": "function"
    },
    {
      "inputs": [
        {
          "internalType": "uint256",
          "name": "batchId",
          "type": "uint256"
        },
        {
          "internalType": "uint256",
          "name": "count",
          "type": "uint256"
        }
      ],
      "name": "buyBottlesForETH",
      "outputs": [],
      "stateMutability": "payable",
      "type": "function",
      "payable": true
    },
    {
      "inputs": [
        {
          "internalType": "uint256",
          "name": "batchId",
          "type": "uint256"
        },
        {
          "internalType": "address[]",
          "name": "tos",
          "type": "address[]"
        },
        {
          "internalType": "uint256",
          "name": "count",
          "type": "uint256"
        }
      ],
      "name": "airdropBottles",
      "outputs": [],
      "stateMutability": "nonpayable",
      "type": "function"
    },
    {
      "inputs": [],
      "name": "withdrawBalance",
      "outputs": [],
      "stateMutability": "nonpayable",
      "type": "function"
    },
    {
      "inputs": [
        {
          "internalType": "uint256",
          "name": "_newSeed",
          "type": "uint256"
        }
      ],
      "name": "setSeed",
      "outputs": [],
      "stateMutability": "nonpayable",
      "type": "function"
    }
  ],
  "bytecode": "0x608060405234801561001057600080fd5b506040516113b13803806113b18339818101604052602081101561003357600080fd5b8101908080519060200190929190505050600061005461013960201b60201c565b9050806000806101000a81548173ffffffffffffffffffffffffffffffffffffffff021916908373ffffffffffffffffffffffffffffffffffffffff1602179055508073ffffffffffffffffffffffffffffffffffffffff16600073ffffffffffffffffffffffffffffffffffffffff167f8be0079c531659141344cd1fd0a4f28419497f9722a3daafe3b4186f6b6457e060405160405180910390a35080600160006101000a81548173ffffffffffffffffffffffffffffffffffffffff021916908373ffffffffffffffffffffffffffffffffffffffff16021790555050610141565b600033905090565b611261806101506000396000f3fe6080604052600436106100865760003560e01c80635fd8c710116100595780635fd8c7101461022e578063715018a6146102455780638da5cb5b1461025c578063c32a50f91461029d578063f2fde38b146102d857610086565b80630afa1f421461008b5780630df638d7146100c357806333bd97241461011457806334fdbe0614610155575b600080fd5b6100c1600480360360408110156100a157600080fd5b810190808035906020019092919080359060200190929190505050610329565b005b3480156100cf57600080fd5b50610112600480360360208110156100e657600080fd5b81019080803573ffffffffffffffffffffffffffffffffffffffff1690602001909291905050506104b7565b005b34801561012057600080fd5b5061012961064d565b604051808273ffffffffffffffffffffffffffffffffffffffff16815260200191505060405180910390f35b34801561016157600080fd5b5061022c6004803603606081101561017857600080fd5b81019080803590602001909291908035906020019064010000000081111561019f57600080fd5b8201836020820111156101b157600080fd5b803590602001918460208302840111640100000000831117156101d357600080fd5b919080806020026020016040519081016040528093929190818152602001838360200280828437600081840152601f19601f82011690508083019250505050505050919291929080359060200190929190505050610673565b005b34801561023a57600080fd5b50610243610978565b005b34801561025157600080fd5b5061025a610af9565b005b34801561026857600080fd5b50610271610c66565b604051808273ffffffffffffffffffffffffffffffffffffffff16815260200191505060405180910390f35b3480156102a957600080fd5b506102d6600480360360208110156102c057600080fd5b8101908080359060200190929190505050610c8f565b005b3480156102e457600080fd5b50610327600480360360208110156102fb57600080fd5b81019080803573ffffffffffffffffffffffffffffffffffffffff169060200190929190505050610d48565b005b6000806000600160009054906101000a900473ffffffffffffffffffffffffffffffffffffffff1673ffffffffffffffffffffffffffffffffffffffff1663815bda47866040518263ffffffff1660e01b81526004018082815260200191505060606040518083038186803b1580156103a157600080fd5b505afa1580156103b5573d6000803e3d6000fd5b505050506040513d60608110156103cb57600080fd5b810190808051906020019092919080519060200190929190805190602001909291905050508093508194508295505050506000811161040957600080fd5b828483011061041757600080fd5b600061042c8583610f3a90919063ffffffff16565b9050803410156104a4576040517f08c379a000000000000000000000000000000000000000000000000000000000815260040180806020018281038252600e8152602001807f6e6f7420656e6f7567682065746800000000000000000000000000000000000081525060200191505060405180910390fd5b6104af338787610fc0565b505050505050565b6104bf6111dc565b73ffffffffffffffffffffffffffffffffffffffff166104dd610c66565b73ffffffffffffffffffffffffffffffffffffffff1614610566576040517f08c379a00000000000000000000000000000000000000000000000000000000081526004018080602001828103825260208152602001807f4f776e61626c653a2063616c6c6572206973206e6f7420746865206f776e657281525060200191505060405180910390fd5b600073ffffffffffffffffffffffffffffffffffffffff168173ffffffffffffffffffffffffffffffffffffffff161415610609576040517f08c379a00000000000000000000000000000000000000000000000000000000081526004018080602001828103825260168152602001807f43616e277420736574207a65726f20616464726573730000000000000000000081525060200191505060405180910390fd5b80600160006101000a81548173ffffffffffffffffffffffffffffffffffffffff021916908373ffffffffffffffffffffffffffffffffffffffff16021790555050565b600160009054906101000a900473ffffffffffffffffffffffffffffffffffffffff1681565b61067b6111dc565b73ffffffffffffffffffffffffffffffffffffffff16610699610c66565b73ffffffffffffffffffffffffffffffffffffffff1614610722576040517f08c379a00000000000000000000000000000000000000000000000000000000081526004018080602001828103825260208152602001807f4f776e61626c653a2063616c6c6572206973206e6f7420746865206f776e657281525060200191505060405180910390fd5b6000811161072f57600080fd5b6060600167ffffffffffffffff8111801561074957600080fd5b506040519080825280602002602001820160405280156107785781602001602082028036833780820191505090505b5090506060600167ffffffffffffffff8111801561079557600080fd5b506040519080825280602002602001820160405280156107c45781602001602082028036833780820191505090505b50905084826000815181106107d557fe5b60200260200101818152505082816000815181106107ef57fe5b60200260200101818152505060005b845181101561097057600160009054906101000a900473ffffffffffffffffffffffffffffffffffffffff1673ffffffffffffffffffffffffffffffffffffffff16631f7fdffa86838151811061085157fe5b602002602001015185856040518463ffffffff1660e01b8152600401808473ffffffffffffffffffffffffffffffffffffffff168152602001806020018060200180602001848103845286818151815260200191508051906020019060200280838360005b838110156108d15780820151818401526020810190506108b6565b50505050905001848103835285818151815260200191508051906020019060200280838360005b838110156109135780820151818401526020810190506108f8565b505050509050018481038252600081526020016020019650505050505050600060405180830381600087803b15801561094b57600080fd5b505af115801561095f573d6000803e3d6000fd5b5050505080806001019150506107fe565b505050505050565b6109806111dc565b73ffffffffffffffffffffffffffffffffffffffff1661099e610c66565b73ffffffffffffffffffffffffffffffffffffffff1614610a27576040517f08c379a00000000000000000000000000000000000000000000000000000000081526004018080602001828103825260208152602001807f4f776e61626c653a2063616c6c6572206973206e6f7420746865206f776e657281525060200191505060405180910390fd5b600047905060008111610aa2576040517f08c379a000000000000000000000000000000000000000000000000000000000815260040180806020018281038252600f8152602001807f6e6f2062616c616e6365206c656674000000000000000000000000000000000081525060200191505060405180910390fd5b6000610aac610c66565b90508073ffffffffffffffffffffffffffffffffffffffff166108fc839081150290604051600060405180830381858888f19350505050158015610af4573d6000803e3d6000fd5b505050565b610b016111dc565b73ffffffffffffffffffffffffffffffffffffffff16610b1f610c66565b73ffffffffffffffffffffffffffffffffffffffff1614610ba8576040517f08c379a00000000000000000000000000000000000000000000000000000000081526004018080602001828103825260208152602001807f4f776e61626c653a2063616c6c6572206973206e6f7420746865206f776e657281525060200191505060405180910390fd5b600073ffffffffffffffffffffffffffffffffffffffff1660008054906101000a900473ffffffffffffffffffffffffffffffffffffffff1673ffffffffffffffffffffffffffffffffffffffff167f8be0079c531659141344cd1fd0a4f28419497f9722a3daafe3b4186f6b6457e060405160405180910390a360008060006101000a81548173ffffffffffffffffffffffffffffffffffffffff021916908373ffffffffffffffffffffffffffffffffffffffff160217905550565b60008060009054906101000a900473ffffffffffffffffffffffffffffffffffffffff16905090565b610c976111dc565b73ffffffffffffffffffffffffffffffffffffffff16610cb5610c66565b73ffffffffffffffffffffffffffffffffffffffff1614610d3e576040517f08c379a00000000000000000000000000000000000000000000000000000000081526004018080602001828103825260208152602001807f4f776e61626c653a2063616c6c6572206973206e6f7420746865206f776e657281525060200191505060405180910390fd5b8060028190555050565b610d506111dc565b73ffffffffffffffffffffffffffffffffffffffff16610d6e610c66565b73ffffffffffffffffffffffffffffffffffffffff1614610df7576040517f08c379a00000000000000000000000000000000000000000000000000000000081526004018080602001828103825260208152602001807f4f776e61626c653a2063616c6c6572206973206e6f7420746865206f776e657281525060200191505060405180910390fd5b600073ffffffffffffffffffffffffffffffffffffffff168173ffffffffffffffffffffffffffffffffffffffff161415610e7d576040517f08c379a00000000000000000000000000000000000000000000000000000000081526004018080602001828103825260268152602001806111e56026913960400191505060405180910390fd5b8073ffffffffffffffffffffffffffffffffffffffff1660008054906101000a900473ffffffffffffffffffffffffffffffffffffffff1673ffffffffffffffffffffffffffffffffffffffff167f8be0079c531659141344cd1fd0a4f28419497f9722a3daafe3b4186f6b6457e060405160405180910390a3806000806101000a81548173ffffffffffffffffffffffffffffffffffffffff021916908373ffffffffffffffffffffffffffffffffffffffff16021790555050565b600080831415610f4d5760009050610fba565b6000828402905082848281610f5e57fe5b0414610fb5576040517f08c379a000000000000000000000000000000000000000000000000000000000815260040180806020018281038252602181526020018061120b6021913960400191505060405180910390fd5b809150505b92915050565b6060600167ffffffffffffffff81118015610fda57600080fd5b506040519080825280602002602001820160405280156110095781602001602082028036833780820191505090505b5090506060600167ffffffffffffffff8111801561102657600080fd5b506040519080825280602002602001820160405280156110555781602001602082028036833780820191505090505b509050838260008151811061106657fe5b602002602001018181525050828160008151811061108057fe5b602002602001018181525050600160009054906101000a900473ffffffffffffffffffffffffffffffffffffffff1673ffffffffffffffffffffffffffffffffffffffff16631f7fdffa8684846040518463ffffffff1660e01b8152600401808473ffffffffffffffffffffffffffffffffffffffff168152602001806020018060200180602001848103845286818151815260200191508051906020019060200280838360005b83811015611143578082015181840152602081019050611128565b50505050905001848103835285818151815260200191508051906020019060200280838360005b8381101561118557808201518184015260208101905061116a565b505050509050018481038252600081526020016020019650505050505050600060405180830381600087803b1580156111bd57600080fd5b505af11580156111d1573d6000803e3d6000fd5b505050505050505050565b60003390509056fe4f776e61626c653a206e6577206f776e657220697320746865207a65726f2061646472657373536166654d6174683a206d756c7469706c69636174696f6e206f766572666c6f77a26469706673582212204ec81f3b0387b69b9126edfcd50613f5f56726969830c5734169eea8741a3af664736f6c634300060c0033",
  "immutableReferences": {},
  "source": "// SPDX-License-Identifier: MIT\n\npragma solidity ^0.6.0;\n\nimport \"@openzeppelin/contracts/access/Ownable.sol\";\nimport \"@openzeppelin/contracts/token/ERC20/ERC20.sol\";\nimport \"@openzeppelin/contracts/token/ERC20/ERC20Burnable.sol\";\nimport \"@openzeppelin/contracts/token/ERC20/SafeERC20.sol\";\nimport \"@openzeppelin/contracts/math/SafeMath.sol\";\n\n////////////////////////////////////////////////////////////////////////////////\n\nimport \"./Bottle.sol\";\n\n////////////////////////////////////////////////////////////////////////////////\n\n/*\n *  BottleWrapper implements a contract which allows bottles to be purcahsed for\n *  ETH.\n */\ncontract BottleWrapper is Ownable\n{\n  using SafeMath for uint256;\n\n  //////////////////////////////////////////////////////////////////////////////\n\n  Bottle public bottleContract;\n\n  //////////////////////////////////////////////////////////////////////////////\n\n  uint256 seed;\n\n  constructor(\n    address _bottleAddress\n  )\n    Ownable()\n    public\n  {\n    bottleContract = Bottle(_bottleAddress);\n  }\n\n  //////////////////////////////////////////////////////////////////////////////\n\n  /*\n   *  Update contract address for the ESTile contract.\n   */\n  function setBottleAddress(\n    address _address\n  )\n    external\n    onlyOwner\n  {\n    require(_address != address(0), \"Can't set zero address\");\n    bottleContract = Bottle(_address);\n  }\n\n  //////////////////////////////////////////////////////////////////////////////\n\n  function _mintBottleFromBatch(\n    address recipient,\n    uint256 batchId,\n    uint256 count\n  )\n    internal\n  {\n    uint256[] memory tokenIdsToMint = new uint256[](1);\n    uint256[] memory quantitiesToMint = new uint256[](1);\n\n    tokenIdsToMint[0] = batchId;\n    quantitiesToMint[0] = count;\n\n    bottleContract.mintBatch(recipient, tokenIdsToMint, quantitiesToMint, \"\");\n  }\n\n  function buyBottlesForETH(\n    uint256 batchId,\n    uint256 count\n  )\n    payable public\n  {\n    uint256 maxBottles;\n    uint256 numBottles;\n    uint256 ethCost;\n    (maxBottles, numBottles, ethCost) = bottleContract.batchInfo(batchId);\n    require(ethCost > 0);\n    require(numBottles + count < maxBottles);\n\n    uint256 cost = ethCost.mul(count);\n    require(msg.value >= cost, \"not enough eth\");\n    _mintBottleFromBatch(msg.sender, batchId, count);\n  }\n\n  function airdropBottles(\n    uint256 batchId,\n    address[] memory tos,\n    uint256 count\n  )\n    public\n    onlyOwner\n  {\n    require(count > 0);\n\n    uint256[] memory tokenIdsToMint = new uint256[](1);\n    uint256[] memory quantitiesToMint = new uint256[](1);\n\n    tokenIdsToMint[0] = batchId;\n    quantitiesToMint[0] = count;\n\n    for (uint256 ti = 0; ti < tos.length; ti++) {\n      bottleContract.mintBatch(tos[ti], tokenIdsToMint, quantitiesToMint, \"\");\n    }\n  }\n\n  //////////////////////////////////////////////////////////////////////////////\n\n  function withdrawBalance()\n    public\n    onlyOwner\n  {\n    uint256 balance = address(this).balance;\n    require(balance > 0, \"no balance left\");\n    address payable owner = payable(owner());\n    owner.transfer(balance);\n  }\n\n  uint256 internal nonce;\n\n  function _random(address behalf)\n    internal\n    returns (uint256)\n  {\n    nonce++;\n    uint256 randomNumber = uint256(\n      keccak256(\n        abi.encodePacked(\n          blockhash(block.number - 1),\n          behalf,\n          nonce,\n          seed\n        )\n      )\n    );\n    seed = randomNumber;\n    return randomNumber;\n  }\n\n  function setSeed(\n    uint256 _newSeed\n  )\n    public\n    onlyOwner\n  {\n    seed = _newSeed;\n  }\n}\n",
  "sourcePath": "/Users/shaba/work/github/private/crypto/craate/contract/contracts/BottleWrapper.sol",
  "compiler": {
    "name": "solc",
    "version": "0.6.12+commit.27d51765.Emscripten.clang"
  },
  "schemaVersion": "3.3.3",
  "updatedAt": "2022-03-05T05:32:26.924Z",
  "networkType": "ethereum",
  "devdoc": {
    "kind": "dev",
    "methods": {
      "owner()": {
        "details": "Returns the address of the current owner."
      },
      "renounceOwnership()": {
        "details": "Leaves the contract without owner. It will not be possible to call `onlyOwner` functions anymore. Can only be called by the current owner. NOTE: Renouncing ownership will leave the contract without an owner, thereby removing any functionality that is only available to the owner."
      },
      "transferOwnership(address)": {
        "details": "Transfers ownership of the contract to a new account (`newOwner`). Can only be called by the current owner."
      }
    },
    "version": 1
  },
  "userdoc": {
    "kind": "user",
    "methods": {},
    "version": 1
  }
}